:100000000C941A070C9461070C9461070C94610717
:100010000C9461070C9461070C9461070C946107C0
:100020000C9461070C9461070C94742C0C94462D6D
:100030000C94CE220C9461070C9461070C94610718
:100040000C9461070C9461070C9461070C94610790
:100050000C9461070C9436230C9461070C9461078F
:100060000C9461070C9461070C9461070C94610770
:100070000C9461070C9461070C9461070C94610760
:100080000C9461070C9461070C9461070C94610750
:100090000C9461070C9461070C9461070C94610740
:1000A0000C9461070C9461070C946107CE08D0088A
:1000B000DB08D208D408D608D808DA08DD08DF083B
:1000C000E108EC08E308E508E708E908EB08EE08B2
:1000D0004118411873187318B118D1185A1A5A1ABE
:1000E00013195A1AB419B419261A2F1A5A1A531A6C
:1000F000C119C119C119C119C119C119C119C11930
:10010000C119C119C119C119C119C119C119C1191F
:10011000D219E019E719EE19F819E91AE91AFB1AC8
:10012000FB1AF21AFB1AFB1AFB1AE91AE91AF71A58
:10013000FB1AFB1AF71AB32DDA2DCC2EDA2DCC2EA2
:10014000262E492ECC2E9F2EAE2E165C1E001F0092
:100150002000210022002300240025002600270083
:100160002D002E0000002A002B00000014001A00B1
:100170000800150017001C0018000C0012001300E6
:100180002F00300031003900000004001600070085
:1001900009000A000B000D000E000F0033003400B0
:1001A00028000000E10064001D001B00060019008B
:1001B000050011001000360037003800E100520041
:1001C0004C00E000E3000000E200000000002C0012
:1001D0000000000000000151E600500051004F00F7
:1001E00035003A003B003C003D003E003F0040002F
:1001F0004100420043004400450001004C00010062
:100200000000C25CC35CC55CC65CC75CC85CC95C02
:10021000CA5C0100010001000100005C0100000057
:1002200001000100010001000100010001000100C6
:1002300001000100010001000000010001000100B7
:100240000100BD5CBF5CBE5CC05C01000100010040
:100250000100010001000100010001000000010097
:100260000100000001000000010000000100010089
:100270000100010001000100010001000100010076
:100280000100010001000100010001000100010066
:100290000100010001000000010001000100010057
:1002A0000100010001000100010001000100010046
:1002B0000100010000000100010001000100010037
:1002C0000100010001000100010001000100000027
:1002D0000100010001000100010001000100010016
:1002E0000100010001000100010001000100010006
:1002F00001000000010001000000010000000100F9
:1003000000000100010001000100010001000100E6
:1003100001000100010001000100010001000100D5
:1003200001000100010001000100010000000100C6
:1003300001000100010001000100010001000100B5
:1003400001000100010001000100000001000100A6
:100350000100010001000100010001000100010095
:100360000100010000000100010001000100010086
:100370000100010001000100010001000100010075
:100380000100010001000100000001000100000067
:100390000100000001000000010001000100010057
:1003A0000100010001000100010001000100010045
:1003B0000100010001000100010001000100010035
:1003C0000100000001000100010001000100010026
:1003D0000100010001000100010001000100010015
:1003E0000000010001000100010001000100010006
:1003F00001000100010001000100000001000100F6
:1004000001000100010001000100010001000100E4
:1004100001000100010001000100010001000000D5
:1004200001000100000001000000010000000100C7
:1004300001000100010001000100010001000100B4
:1004400001000100010001000100010001000100A4
:100450000100010001000100000001000100010095
:100460000100010001000100010001000100010084
:100470000100010001000000010001000100010075
:100480000100010001000100010001000100010064
:100490000000010001000100010001000100010055
:1004A0000100010001000100010001000100010044
:1004B0000100010000000100010000000100000037
:1004C0000100000001000100010001000100010025
:1004D0000100010001000100010001000100010014
:1004E0000100010001000100010001000100000005
:1004F00001000100010001000100010001000100F4
:1005000001000100010001000100010000000100E4
:1005100001000100010001000100010001000100D3
:1005200001000100010000000100010001000100C4
:1005300001000100010001000100010001000100B3
:1005400001000100010001000100000001000100A4
:100550000000010000000100000001000100010096
:100560000100010001000100010001000100010083
:100570000100010001000100010001000100010073
:100580000100010000000100010001000100010064
:100590000100010001000100010001000100010053
:1005A0000100000001000100010001000100010044
:1005B0000100010001000100010001000000010034
:1005C0000100010001000100010001000100010023
:1005D0000100010001000100010001000100010013
:1005E0000000010001000000010000000100000007
:1005F00001000100010001000100010001000100F3
:1006000001000100010001000100010001000100E2
:1006100001000100010001000100000001000100D3
:1006200001000100010001000100010001000100C2
:1006300001000100010001000000010001000100B3
:1006400001000100010001000100010001000100A2
:100650000100000001000100010001000100010093
:100660000100010001000100010001000100010082
:100670000100010001000000010001000000010074
:100680000000010000000100010001000100010064
:100690000100010001000100010001000100010052
:1006A0000100010001000100010001000100010042
:1006B0000000010001000100010001000100010033
:1006C0000100010001000100010001000100000023
:1006D0000100010001000100010001000100010012
:1006E0000100010001000100000001000100010003
:1006F00001000100010001000100010001000100F2
:1007000001000100010001000100010000000100E2
:1007100001000000010000000100000001000100D4
:1007200001000100010001000100010001000100C1
:1007300001000100010001000100010001000100B1
:1007400001000100010000000100010001000100A2
:100750000100010001000100010001000100010091
:100760000100010000000100010001000100010082
:100770000100010001000100010001000100000072
:100780000100010001000100010001000100010061
:100790000100010001000100010001000100010051
:1007A0000100000001000100000001000000010044
:1007B0000000010001000100010001000100010032
:1007C0000100010001000100010001000100010021
:1007D0000100010001000100010001000000010012
:1007E0000100010001000100010001000100010001
:1007F00001000100010001000100000001000100F2
:1008000001000100010001000100010001000100E0
:1008100001000100000001000100010001000100D1
:1008200001000100010001000100010001000100C0
:1008300001000100010001000000010001000000B2
:1008400001000000010000000100010001000100A2
:100850000100010001000100010001000100010090
:100860000100010001000100010001000100010080
:100870000100000001000100010001000100010071
:100880000100010001000100010001000100010060
:100890000000010001000100010001000100010051
:1008A0000100010001000100010000000100010041
:1008B0000100010001000100010001000100010030
:1008C0000100010001000100010001000100000021
:1008D0000100010000000100000001000000010013
:1008E0000100010001000100010001000100010000
:1008F00001000100010001000100010001000100F0
:1009000001000100010001000000010001000100E0
:1009100001000100010001000100010001000100CF
:1009200001000100010000000100010001000100C0
:1009300001000100010001000100010001000100AF
:1009400000000100010001000100010001000100A0
:10095000010001000100010001000100010001008F
:100960000100010000000100010000000100000082
:100970000100000001000100010001000100010070
:10098000010001000100010001000100010001005F
:100990000100010001000100010001000100000050
:1009A000010001000100010001000100010001003F
:1009B0000100010001000100010001000000010030
:1009C000010001000100010001000100010001001F
:1009D0000100010001000000010001000100010010
:1009E00001000100010001000100010001000100FF
:1009F00001000100010001000100000001000100F0
:100A000000000100000001000000010001000100E1
:100A100001000100010001000100010001000100CE
:100A200001000100010001000100010001000100BE
:100A300001000100000001000100010001000100AF
:100A4000010001000100010001000100010001009E
:100A5000010000000100010001000100010001008F
:100A6000010001000100010001000100000001007F
:100A7000010001000100010001000100010001006E
:100A8000010001000100010001000100010001005E
:100A90000000010001000000010000000100000052
:100AA0000100010001000100010000047F3F1F64FC
:100AB0003214643214783C1E1E140A0522232526A3
:100AC00028292A2C2D2F3032333536383A3B3D3EFB
:100AD0004042434547494A4C4E5051535557595A45
:100AE0005C5E6062646668696B6D6F71737577795F
:100AF0007B7D7F81838587898A8C8E90929496985E
:100B00009A9C9E9FA1A3A5A7A8AAACAEAFB1B3B46F
:100B1000B6B8B9BBBCBEBFC1C2C3C5C6C7C9CACBC4
:100B2000CCCDCED0D1D2D2D3D4D5D6D7D7D8D9D98F
:100B3000DADADBDBDBDCDCDCDCDCDDDDDDDDDCDCF8
:100B4000DCDCDCDBDBDBDADAD9D9D8D7D7D6D5D415
:100B5000D3D2D2D1D0CECDCCCBCAC9C7C6C5C3C2E1
:100B6000C1BFBEBCBBB9B8B6B4B3B1AFAEACAAA836
:100B7000A7A5A3A19F9E9C9A98969492908E8C8AEA
:100B800089878583817F7D7B79777573716F6D6BC5
:100B90006968666462605E5C5A5957555351504E9D
:100BA0004C4A4947454342403E3D3B3A383635334F
:100BB00032302F2D2C2A292826252322FFAA7F55C3
:100BC00040000000000000000000000101010101E0
:100BD00001010101020202020202020203030303F5
:100BE00003030304040404040505050505060606BD
:100BF000060607070707080808080909090A0A0A74
:100C00000B0B0B0C0C0C0D0D0D0E0E0E0F0F101010
:100C10001011111212131314141515161617171894
:100C20001819191A1A1B1C1C1D1D1E1F1F202121FB
:100C300022232324252526272828292A2B2C2C2D3E
:100C40002E2F30313132333435363738393A3B3C58
:100C50003D3E3F404142434445464748494B4C4D49
:100C60004E4F50525354555758595A5C5D5E60610F
:100C700063646567686A6B6C6E6F7172747677799E
:100C80007A7C7D7F8182848687898B8D8E909294F9
:100C90009597999B9D9FA1A2A4A6A8AAACAEB0B21D
:100CA000B4B6B9BBBDBFC1C3C5C8CACCCED0D3D5FD
:100CB000D7DADCDEE1E3E6E8EAEDEFF2F4F7F9FC9F
:100CC000FF0403300000000A0344005A00360030DD
:100CD0000000000E0364007A007400650063006881
:100CE0000000000403090409023B00020100A0FA0D
:100CF0000904000001030101000921110100012282
:100D000040000705810308000A09040100010300EF
:100D1000000009211101000122C000070582032003
:100D2000000A1201100100000008EDFE60600100E1
:100D30000102030105010902A10185020901A100C7
:100D4000050919012905150025019505750181027F
:100D50009501750381010501093009311581257F50
:100D600095027508810609381581257F950175085A
:100D70008106050C0A38021581257F9501750881C9
:100D800006C0C005010980A10185031601002603E4
:100D9000001A81002A8300751095018100C0050C9E
:100DA0000901A1018504160100269C021A01002AEE
:100DB0009C02751095018100C005010906A10185FD
:100DC00005050719E029E71500250195087501813A
:100DD000020508190129059505750191029501750E
:100DE0000391010507190029EF1500250195F075FC
:100DF000018102C005010906A101050719E029E7E3
:100E0000150025019508750181029501750881017C
:100E100005081901290595057501910295017503CC
:100E200091010507190029FF150026FF0095067599
:100E3000088100C011241FBECFEFDAE0DEBFCDBFB6
:100E400004B603FE27C08091770590917805A091A4
:100E50007905B0917A058730904BA740B04BD1F41B
:100E600010927705109278051092790510927A0504
:100E700014BE84B7877F84BF0FB6F894A89580917D
:100E80006000886180936000109260000FBEE0E017
:100E9000F8E3099511E0A0E0B1E0E2EAFFE502C065
:100EA00005900D92AC35B107D9F725E0ACE5B1E07E
:100EB00001C01D92A737B207E1F70E9496290C9452
:100EC000CF2F0C9400000C946A070C946B0780E001
:100ED00090E008950895089581E0089581FF02C08B
:100EE000229A01C022982A98089581E008950C94CE
:100EF0006C071F93CF93DF9300D000D01F92CDB724
:100F0000DEB749835A832091960189819A81211104
:100F100012C0662349F00E940E20182F682F898185
:100F20009A810E94B31F03C00E94E21F182F69819B
:100F30007A81812F04C00E940E2069817A810F90EE
:100F40000F900F900F900F90DF91CF911F910C9405
:100F50005C0AFC01408151816281738184810C941F
:100F600079070C946507E82FE295EF70F0E032A165
:100F7000282F2F7081E090E001C0880F2A95EAF7B2
:100F80008095832382A30895CF92DF92EF92FF9200
:100F90008B3030F4811105C0909180009F7D04C09A
:100FA0008AE090918000906290938000282F30E03A
:100FB000AFEFBFEF0E94602F2AE030E040E050E04A
:100FC0000E94382F2C3784E138074105510530F451
:100FD000C90169E070E00E94102F29C0DA01C9013F
:100FE0008A50974DAF4FBF4F6627782F892F9A2F82
:100FF00025EF38E241E050E00E94382F69017A0184
:10100000CA01B9010E94002F9B01AC01C701B601C2
:101010000E94002FBB27A92F982F872F009721E030
:10102000A207B10511F0BC0102C06FEF7FEF709312
:101030008B0060938A00FF90EF90DF90CF9008952F
:10104000269A86E30E94B30782E28093800089E1BA
:10105000809381008FEF9FEF9093870080938600AD
:101060000C9416270E943E21811102C00E94CB21C0
:101070000E9420080C9463070C946E070C943C08A3
:1010800008950E94D91A0E9440082FEF84E39CE043
:10109000215080409040E1F700C000000C945C2398
:1010A0000F931F93CF93DF938C010E94A907EC014C
:1010B000B8010E947707882309F4F7C1B801CE016F
:1010C0000E94AA14882309F4F0C1CA3CFCE5DF079A
:1010D00041F4F8018281882309F4E7C10E94E810F5
:1010E000E4C1CB3C8CE5D80708F012C1C33C9CE5B9
:1010F000D90761F4F8018281882309F4D6C10E94DE
:101100008E208272E1F00E941313CFC1C43CECE543
:10111000DE07C0F0C63C9CE5D90709F4CAC008F058
:10112000DCC0C43CFCE5DF0709F0CBC0F8018281DC
:10113000882309F4BAC10E948E20827221F30E9492
:101140000613B3C1C531FCE5DF0708F07BC0C23030
:101150008CE5D80708F452C0F8018281882309F48D
:1011600054C00E943E21811102C00E94CB210E94E6
:101170005B2190E09093680580936705FE01E35042
:10118000FC45E231F10530F4EA5AFF4F80916705E2
:101190000C945A2F80916705816027C0826025C01A
:1011A000846023C0806121C080621FC080641DC034
:1011B00080681BC08460886018C08E7F16C08D7FD9
:1011C00014C08B7F12C08F7E10C08F7D0EC08F7BAE
:1011D0000CC08F770AC08B7F877F07C087FB2227D1
:1011E00020F991E0922790FB87F980936705809121
:1011F00067050E945F210E94D91A57C1C1159CE55D
:10120000D90751F0C130DC4579F0C801DF91CF91A9
:101210001F910F910C947507F8018281882309F4BE
:1012200044C10E94410841C1F8018281882309F428
:101230003CC180912E02982F909590FB80F980936D
:101240002E0233C1C631FCE5DF0739F50E948E203E
:10125000282FF801828140911001509111018823BB
:1012600079F02A7A91E009F490E090935C01911171
:1012700002C069E201C065E3CA010E9432220AC0CD
:1012800080915C01811102C069E201C065E3CA017D
:101290000E943D220E94DA2008C1C23CDC4509F0D0
:1012A000B4CFF8018281882309F4FFC00E94211382
:1012B000FCC0F8018281882309F4F7C00E94AC10B9
:1012C000F4C0C53CDC4509F0A0CFF8018281882339
:1012D00009F4EBC00E949F10E8C0F8018281C83C6D
:1012E000FCE5DF0731F4882309F4DFC00E94CA104F
:1012F000DCC0C93CDC4530F4882309F4D6C00E9428
:10130000BB10D3C0882309F4D0C00E94D910CDC02F
:10131000C13DECE5DE0791F4F8018281882309F4F0
:10132000C4C00E941A0F8F3028F00E941A0F843117
:1013300008F405CF8FE00E941613B7C0C23DFCE54C
:10134000DF0708F05AC0CD3C8CE5D80739F4F80126
:101350008281882309F4A9C081E0EDCFCE3C9CE5D1
:10136000D907C0F4CB3CECE5DE0741F4F8018281FB
:10137000882309F49AC00E94220F97C0CC3CDC4518
:1013800009F043CFF8018281882309F48EC00E94BE
:10139000330F8BC0F8018281CF3CFCE5DF0771F48D
:1013A000882309F482C00E941A0F863028F00E9418
:1013B0001A0F883008F4C3CE86E0BDCFC03DDC45AF
:1013C00070F4882309F471C00E941A0F823028F04B
:1013D0000E941A0F853008F4B2CE82E0ACCF882389
:1013E00009F463C00E941A0F893028F00E941A0F76
:1013F0008E3008F4A4CE89E09ECFC53DECE5DE0733
:1014000039F4F8018281882309F44FC083E293CF35
:10141000C63DFCE5DF0740F5F8018281C33DFCE5F0
:10142000DF0729F4882309F440C088E184CFC43D54
:10143000DC4568F48823C9F10E941A0F853128F031
:101440000E941A0F873108F47ACE85E174CF882381
:1014500061F10E941A0F893128F00E941A0F82321E
:1014600008F46DCE89E167CFCD3DECE5DE0741F4B0
:10147000F80182818823C9F082E00E94372A15C0D2
:10148000CE3DFCE5DF0739F4F8018281882369F05D
:101490000E94CB210AC0CC3DDC4509F0B6CEF80154
:1014A0008281882311F080E0E8CF80E0DF91CF9146
:1014B0001F910F91089508959FE0799FF0011124E5
:1014C0009BE4899FE00DF11D1124E60FF11DEE0F45
:1014D000FF1FE65BFE4F859194910895880F991F39
:1014E000FC01E655F54F859194910895CF93DF93D4
:1014F0000E945C0A0E94690CEC01811521E59207AB
:1015000008F042C0811560E5960708F031C1883EB9
:10151000910500F5803E910508F0D7C1883A910504
:1015200070F4853A910508F0A6C08130910509F460
:10153000CCC108F47DC1049708F0C7C179C18F3BC5
:10154000910508F4A3C0803C910508F471C1805C4A
:101550009109FDC0C11580E3D80780F4C11590E260
:10156000D90708F0F2C0C03FD10508F461C1CF3FF0
:10157000D10511F008F0A9C1D065A7C1C11520E4BB
:10158000D20708F0F2C0E7C0811569E5960760F55B
:10159000C11588E5D80708F037C1C11594E5D9070A
:1015A00078F4C11523E5D20708F013C1C11562E52F
:1015B000D60708F0F8C0DC2FCC27C16FD06A85C1F0
:1015C000C11585E5D80708F41AC1C11596E5D907F4
:1015D00008F02EC18C2F0E94E60C8F71C82FD0E02E
:1015E000DC2FCC27D06271C18D3B2CE5920709F42A
:1015F00016C1F0F4CB3B8CE5D80709F40AC108F01A
:101600000BC1C1152AE5D20708F012C18C2F8F70CB
:101610000E94E60C94E0D695C7959A95E1F7CF70B5
:10162000D0E0DC2FCC27D06A8F70806EC82B4DC1E4
:10163000803C9C4509F4F9C0C13C8CE5D80760F4B6
:10164000CE3B9CE5D90709F4EDC0CF3BDC4509F062
:10165000EFC0C0E0D2ED39C1CE0190568115904265
:1016600008F0E6C08D2F8F710E94E60CDD27D06256
:101670008F71D82B2AC1853A910509F4DCC0863ACE
:10168000910509F0DBC0C2E8D0E41FC1883A91059A
:1016900009F4D7C0893A910509F4D6C08A3A910570
:1016A00009F4D5C08B3A910509F4D4C08C3A910560
:1016B00009F4D3C08B3B910509F4D2C08C3B910552
:1016C00009F4D1C08D3A910509F4D0C0803B910551
:1016D00009F4CFC08E3A910509F4CEC08F3A910536
:1016E00009F4CDC0813B910509F4CCC0823B910542
:1016F00009F4CBC0833B910509F4CAC0843B910532
:1017000009F4C9C0853B910509F4C8C0863B910521
:1017100009F4C7C0873B910509F4C6C0883B910511
:1017200009F4C5C0893B910509F4C4C08D3B9105FE
:1017300009F4C3C08E3B910509F4C2C08A3B9105F0
:1017400009F4C1C0C0E0D4E4C0C0CE019F700E94C3
:101750006E0AEC01BAC0CE019927D3FF03C0EC0199
:10176000D86CB3C0EC01D06CB0C0DF70D06AADC033
:10177000837021E030E002C0220F331F8A95E2F728
:101780003C68CE0174E0969587957A95E1F7837071
:10179000382BCF70C695C69580E2C89FE001112412
:1017A000C22BD32B92C04C2F4695469590E2499F71
:1017B000A0011124C370DD2721E030E0C90102C07F
:1017C000880F991FCA95E2F7EC01C42BD52BDC6872
:1017D0007CC04C2F4695469580E2489FA00111247D
:1017E000C370DD2721E030E0C90102C0880F991FD6
:1017F000CA95E2F7EC01C42BD52BDA6866C0DC2F62
:10180000CC27C46FD06A61C0DC2FCC27C06FD06AF0
:101810005CC0C0E0D4ED59C0C0E0D5ED56C0C0E01A
:10182000D1ED53C0C0E0D0ED50C0C0E0D3ED4DC00D
:10183000C0E0D0E04AC0C1E8D0E447C0C3E8D0E48B
:1018400044C0C2EED4E441C0C9EED4E43EC0CAEE06
:10185000D4E43BC0C5EBD4E438C0C6EBD4E435C017
:10186000C3EBD4E432C0C4EBD4E42FC0C7EBD4E460
:101870002CC0CCECD4E429C0CDECD4E426C0C3E821
:10188000D5E423C0CAE8D5E420C0C2E9D5E41DC030
:10189000C4E9D5E41AC0C1E2D6E417C0C3E2D6E475
:1018A00014C0C4E2D6E411C0C5E2D6E40EC0C6E25C
:1018B000D6E40BC0C7E2D6E408C0CFE6D4E405C046
:1018C000C0E7D4E402C0CAE2D6E4CE01DF91CF91F2
:1018D00008958238910549F1B0F48133910509F4F6
:1018E00058C048F48932910509F44EC08A329105F6
:1018F00009F454C008958533910509F440C0893333
:10190000910599F00895833E910529F138F4803EC0
:10191000910591F0823E9105A1F00895863E9105D2
:10192000F9F0873E910531F108952091670520FD7A
:101930003AC021FD38C008958091670580FD35C00B
:1019400032C08091670582FF32C08091670584FDB7
:1019500030C083EE39C08091670582FD28C0F5CF85
:101960008091670583FF27C08091670584FD21C0B2
:1019700087EE2AC08091670583FD1DC0F5CF809159
:10198000670585FD1AC01BC08091670585FD17C0DE
:1019900014C08091670586FD14C015C0809167054D
:1019A00086FD11C00EC080EE0FC089E30DC082EE2F
:1019B0000BC080E009C086EE07C089E205C085E360
:1019C00003C08AE201C081E390E008959091670529
:1019D00092FF0DC0282F2871283019F4877F84606A
:1019E00006C0282F2471243011F48B7F886093FF68
:1019F0000DC0282F2871283119F4877E846106C014
:101A0000282F2471243111F48B7E886194FD877E08
:101A10000895E82FF0E0EE0FFF1FE35AFE4F80819C
:101A2000918108950895A2E3B1E041E050E025E0FE
:101A30002A0F8D91E82FE295EF70F0E031A18F70C1
:101A4000BA0102C0660F771F8A95E2F7CB01962F85
:101A50009095932391A392A1892B82A32A13E9CF76
:101A6000A3E2B1E041E050E02FE02A0F8D91E82F92
:101A7000E295EF70F0E031A18F70BA0102C0660FFD
:101A8000771F8A95E2F7CB01962F9095932391A328
:101A900092A1892B82A32A13E9CFE7E6F1E0ADE515
:101AA000B1E0119211921D921D9271E0E137F7079A
:101AB000C1F785E00E94F50D0C9432085F926F9299
:101AC0007F928F929F92AF92BF92CF92DF92EF92CE
:101AD000FF920F931F93CF93DF9302E311E0A7E6EA
:101AE000B1E0612CEE24E394F12C5D018D909C908B
:101AF000119711961C921E92E80189918E01E82F90
:101B0000E295EF70F0E091A18F70A70101C0440F42
:101B10008A95EAF7892F842B81A382A1542E5094B1
:101B2000852182A3D0EADA95F1F783E2C82E81E01D
:101B3000D82E80E090E0E60179906E01272D229565
:101B40002F7030E0E90168A12D913C91119770E070
:101B5000D72DDF7002C075956795DA95E2F760FDC5
:101B600008C0B701082E02C0660F771F0A94E2F77B
:101B700002C060E070E0262B372B11963C932E9329
:101B800001968F309105B9F681A1D52DD823D1A327
:101B900082A1482B42A3129681E0F5012081318178
:101BA0008216930609F480E0682AF1E0A137BF07A6
:101BB00009F09BCF262D45E06DE571E087E691E0C9
:101BC0000E94F60D0E94B107862DDF91CF911F91E3
:101BD0000F91FF90EF90DF90CF90BF90AF909F90CC
:101BE0008F907F906F905F9008950895FF920F936C
:101BF0001F93CF93DF93F82E092F162FD72FC42FC3
:101C0000222349F081E0809373010E940023909386
:101C1000720180937101809173018823D9F08091C2
:101C20007101909172010E940C23069798F0EF2D9C
:101C3000F02FA12FBD2F80E090E04C2F50E08417B3
:101C4000950734F4219131912D933D930196F7CF6F
:101C500010927301DF91CF911F910F91FF90089522
:101C6000CF92DF92EF92FF920F931F93CF93DF9368
:101C70007B01282F382FE82FF0E0F11006C0EF533A
:101C8000F44F6491762F862F7BC00F2D10E046E035
:101C9000649FC0011124CFEFD0E0BE010E94102F3D
:101CA000AB016BEA6403C001659F900D11248E0D9A
:101CB000911D8E0D911D982F990F890FBE01601BEC
:101CC000710B6E9FD0016F9FB00D7E9FB00D1124E0
:101CD0009B2F8F9DB0011124672F77277E01E61A75
:101CE000F70AEE9EB001EF9E700DFE9E700D11245E
:101CF0006E01C81AD108C09E7001C19EF00CD09E22
:101D0000F00C11240F2D1127C01BD10BCE9F800189
:101D1000CF9F100DDE9F100D1124812F42305105F1
:101D200091F04CF441155105E1F041305105B9F401
:101D3000822F272F16C04430510569F044F04630F9
:101D4000510579F00CC0822F2B2F912F0AC02B2F19
:101D5000932F872F06C08B2F922F212F02C08B2FFE
:101D6000972FE22FF0E0EF53F44F7491E82FF0E05B
:101D7000EF53F44F6491E92FF0E0EF53F44F849167
:101D8000DF91CF911F910F91FF90EF90DF90CF9057
:101D900008950895CF93DF93762FE901682F842F5C
:101DA0000E94300E798368838A83DF91CF910895F2
:101DB00080915F02282F269530E02115310519F416
:101DC0008170826005C02532310524F081708864FD
:101DD00080935F02089588E090E00C948F2FCF935A
:101DE000DF9300D000D0CDB7DEB7AB01BC01498393
:101DF0005A836B837C830E94D80E49815A816B8100
:101E00007C8188E090E00F900F900F900F90DF9111
:101E1000CF910C94AD2FEFE5F2E083E08083118247
:101E20008FEF8283838314826081718182819381A9
:101E30000C94EF0E80915F0280FF02C0869508959A
:101E400080E0089580916302833018F48F5F80935F
:101E5000630260915F0270916002809161029091D3
:101E600062020C94EF0E80916302882319F0815076
:101E70008093630260915F027091600280916102C1
:101E8000909162020C94EF0E6091040170E08091D9
:101E90005F0280FF0AC08091780123E0829FC00129
:101EA00011248C599D4F0C943A1480917701909194
:101EB0000301891780F7E82FF0E09F01220F331FFD
:101EC000E20FF31FEC59FD4F1182108212828F5FD7
:101ED000F0CF90915F0290FF16C090917701209112
:101EE0000301921770F4E92FF0E0DF01AA0FBB1F86
:101EF000EA0FFB1FEC59FD4F8183608342839F5F94
:101F0000F0CF0C94440F0895CF93DF9300D01F922D
:101F1000CDB7DEB790915F0290FF0AC09E012F5FA0
:101F20003F4F0E94CA0E4B8169818A810E94690FCE
:101F30000F900F900F90DF91CF910895CF93DF9383
:101F4000EC01EC81F0E0E454F54F4491EFE5F2E070
:101F5000628181810E94840F8C818F5F8C83DF91ED
:101F6000CF910895CF93DF93EC01EFE5F2E0438149
:101F700062818C810E94840F8C818F5F8C83DF91C2
:101F8000CF9108950F931F93CF93DF9300D01F92AB
:101F9000CDB7DEB78C018091740181110AC09E011A
:101FA0002F5F3F4F4FEF6FEF0E94CA0E8A818093E1
:101FB0007401F8018481813051F028F0823061F49D
:101FC000409174010AC08091740140E007C06091A3
:101FD000740140E080E003C040E080E060E00E94E7
:101FE000690FF801248130E0C901019663E070E0D7
:101FF0000E94242F84830F900F900F90DF91CF9138
:102000001F910F910895AF92BF92CF92DF92EF92FE
:10201000FF920F931F93CF93DF9300D01F92CDB702
:10202000DEB7182FF62E042FE22E90915F0290FF5C
:102030006EC0E92FE695AE2FB0E0A95CBE4F8C9143
:10204000809380019E7F923061F49E012F5F3F4F0D
:10205000812F0E94CA0E4B8169818A810E94690F7B
:1020600044C0823019F4009162023FC0863019F4F6
:10207000109160023AC08930D9F38931B1F5E95144
:102080008E2F8170D82EE695F0E0E454F44FA590A1
:10209000B490C12CBB2460910201C61620F5EC2D32
:1020A000F0E0EA9DC001EB9D900DFA9D900D11248A
:1020B00070E00E94102F812FD11002C0860F01C046
:1020C000861B90917701E90FF11D9F01220F331FAD
:1020D000E20FF31F9F012C593D4F402F6F2D0E949F
:1020E000CA0EC394D8CF0E94440F10936002F0929E
:1020F000610200936202EE2051F060915F027091E4
:10210000600280916102909162020E94EF0E0F9036
:102110000F900F90DF91CF911F910F91FF90EF9053
:10212000DF90CF90BF90AF900895EFE5F2E09181FE
:10213000282F4381628188E0890F0C94031081E08D
:102140000C949510EFE5F2E09181282F4381628194
:1021500088EF890F0C94031081E00C94A210EFE536
:10216000F2E0628128E0620F08F46FEF282F4381CC
:1021700081810C94031081E00C94AF10EFE5F2E044
:10218000628128E0621B08F460E0282F438181818E
:102190000C94031081E00C94BE10EFE5F2E0438153
:1021A00028E0420F08F44FEF282F628181810C94C0
:1021B000031081E00C94CD10EFE5F2E0438128E0BC
:1021C000421B08F440E0282F628181810C940310A7
:1021D00081E00C94DC1020E00C940310FF920F932C
:1021E0001F93CF93DF93EC01F12C0FEF10E0609180
:1021F0000201F616E8F42091770130E02F0D311D31
:10220000C901880F991F280F391F2C593D4F70E0C5
:10221000C8010E94242F962F8C8140916202609108
:102220006102F99E800D11240E94CA0EF394DFCF43
:102230000E94440F9A818C8190FF02C08F5F01C081
:1022400081508C83DF91CF911F910F91FF90089562
:10225000BF92CF92DF92EF92FF920F931F93CF9393
:10226000DF93FC01828180FF02C00FEF01C001E01B
:1022700010E0809102011817E0F5C12ED12C809159
:102280007701E601C80FD11DCE01880F991FC80F35
:10229000D91FCC59DD4F198218821A8234E0E32EFF
:1022A000F12CB12C809176018B0D87FF03C09091AA
:1022B0000201890F082E000C990BC816D90691F45B
:1022C000809162028E9DA0018F9D500D1124559525
:1022D0004795559547959E016091610280916002F6
:1022E0000E94CA0EB00EF1E0EF1AF108D9F61F5F96
:1022F000C0CF0E94440F80917601013031F48111EA
:1023000002C080910201815007C090E00196609167
:10231000020170E00E94242F80937601DF91CF911B
:102320001F910F91FF90EF90DF90CF90BF90089595
:10233000CF938091770190910301891770F4E82F72
:10234000F0E09F01220F331FE20FF31FEC59FD4F06
:102350001182108212828F5FF0CFC0E06091020183
:10236000C617B8F5EC2FF0E070E0CF010E94242FE3
:1023700040917701480F80917501082E000C990B50
:1023800050E0E817F907C4F020910101022E000C7B
:10239000330B2E173F0784F09A01220F331F240FAF
:1023A000351F2C593D4F409162026091610280912E
:1023B00060020E94CA0E0BC0FA01EE0FFF1F4E0F03
:1023C0005F1FFA01EC59FD4F118210821282CF5F1C
:1023D000C5CF0E94440F2091000180917501820FAA
:1023E0008093750190910101920F9093010119164C
:1023F0005CF4082E000C990B4091020150E0415012
:102400005109841795071CF0219520930001CF9165
:1024100008950F931F93CF93DF938C01FC01848168
:10242000958101968170992795838483C0E0D5E5D5
:1024300080910201C817F8F42091770130E02C0F49
:10244000311DC901880F991F280F391F2C593D4F85
:102450004C2F4695F80184819581840F911D8170E0
:1024600040916202609161028D9F802D11240E9433
:10247000CA0ECF5FDDCFDF91CF911F910F910C94EA
:10248000440F0F931F93CF93DF93EC0100E010E014
:1024900080910201282F30E00217130724F5909154
:1024A00077019801290F311DA901440F551F240FF1
:1024B000351F2C593D4F869590E04C810817190720
:1024C0001CF4442331F002C0411103C04091620268
:1024D00001C040E060916102809160020E94CA0EDA
:1024E0000F5F1F4FD5CF0E94440F2C8130E02F5F2C
:1024F0003F4F217033272C83DF91CF911F910F9194
:102500000895EFE5F2E080818E7F808360817181A4
:10251000828193810E94EF0E109281012FEF80E75C
:1025200092E0215080409040E1F700C000000C9400
:10253000440FEFE5F2E080818E7F8083109281016D
:102540002FEF80E792E0215080409040E1F700C0FB
:1025500000000C94440F60915F02669570E04BE0C0
:1025600050E085E091E00E947A2F892B19F481E0F8
:10257000809381010E94002390937A0180937901D6
:10258000089590915F0290FF35C09170811102C053
:10259000926006C0853210F0986402C0880F982BB4
:1025A00090935F02662351F060915F027091600228
:1025B00080916102909162020E94EF0E60915F0231
:1025C000669570E04BE050E085E091E00E947A2F44
:1025D000892B19F01092810102C00E94AB1281E098
:1025E00080937C014091620260916102809160025F
:1025F0000C94EB100895682F90915F02969581E0FE
:10260000890F853208F081E00C94C11281E00C94AE
:10261000FB12682F90915F0296958FEF890F09F456
:1026200084E20C94C11281E00C94091361E00C94D3
:10263000C112EFE5F2E080818160808386950C9481
:10264000161380915F0280FD0C9481120C94191373
:1026500060E00C94C11280917F01811133C08091A0
:102660002E02816080932E020E943E21811104C0BF
:102670000E94CB210E940B0F0E94EB0E60935F0221
:102680007093600280936102909362026E7F61F4A6
:102690000E940B0F0E94EB0E60935F02709360022A
:1026A00080936102909362020E94D80E1092810181
:1026B00080915F0280FF03C086950E94281381E00D
:1026C00080937F010895EFE5F2E08081816080834F
:1026D00086950C9428131092810108950F931F93EF
:1026E000CF93DF9380918101882309F48CC080917E
:1026F0008001E0915F02E695E81BE0937B01823068
:1027000049F4F0E0E854F54FE491CE2FD0E00EE923
:102710001FE049C0863049F4F0E0EB54F54FE491F6
:10272000CE2FD0E002EB1FE03EC0893051F4E69599
:10273000F0E0EE54F54FE491CE2FD0E00EEE10E134
:1027400032C08F3051F4E695F0E0E155F54FE49159
:10275000CE2FD0E008E211E126C0853149F4F0E047
:10276000E455F54FE491CE2FD0E008E911E11BC00C
:10277000883181F0833239F4EAEAFAE0C591D491E4
:1027800002EC1FE010C0843251F4C4EFD1E001E448
:1027900012E109C0C8EED3E009E012E104C0C0EDC7
:1027A000D7E009EC1EE080917C01882389F010922B
:1027B0007C010E9400239E0120953095820F931F7B
:1027C00090937A018093790110927E0110927D019D
:1027D0008091790190917A010E940C238C179D07BA
:1027E00090F0E0917901F0917A01CE0FDF1FD09344
:1027F0007A01C093790189E791E0F801DF91CF91E7
:102800001F910F910994DF91CF911F910F9108951E
:102810002EB1342F309523233EB1432B3FB7F8948C
:10282000FC01680F791FE617F70789F0819198E09E
:102830004EB9000000C087FF2EB9880F000000C00D
:1028400000C000C02EB900C09A9591F7ECCF3FBFF1
:1028500008952DB1242B2DB99B01220F331F620F38
:10286000731F0E94081487EC90E00197F1F700C0F5
:102870000000089544E00C9429140F931F93CF9304
:10288000DF93C62FD42F022FFC0182818823C9F049
:10289000609384010E9400239093830180938201BE
:1028A00080E28C0F883008F050C0C77081E001C012
:1028B000880FCA95EAF7DF91CF911F910F910C9481
:1028C000FD1710918401161330C080918201909100
:1028D00083010E940C23883C910538F5C0E2CD0F9E
:1028E0001D17B9F080E2810F883040F4177081E045
:1028F00001C0880F1A95EAF70E940418C83048F4FE
:1029000081E09D2F977001C0880F9A95EAF70E9489
:10291000FD17802F0E94EA17C830B8F4D77081E005
:1029200001C0880FDA95EAF70AC080E28C0F883080
:1029300060F4C77081E001C0880FCA95EAF7DF91A3
:10294000CF911F910F910C940418DF91CF911F919B
:102950000F9108959C01CB01203F4CE53407F9F01D
:1029600078F4283DFCE53F07B9F0293D4CE53407F4
:1029700011F1273D3C4531F526E241EE61EE1EC0E6
:10298000223FFCE53F0799F070F0233F3C45D1F42E
:1029900027E245EE66EE12C027E245EE0EC026E2C3
:1029A00041EE60EE0BC027E245EE64EE07C026E282
:1029B00041EE62EE03C028E241E065EE0E943D1464
:1029C00080E00895FC018281882319F0109284012F
:1029D000089581E0089590938A0180938901089574
:1029E000E0918901F0918A01309721F00190F08106
:1029F000E02D099480E00895E0918901F0918A0129
:102A0000309799F020912201222359F020916705F7
:102A100027FF07C0DC012C9111962C93119725E01C
:102A20002C930280F381E02D09940895E0918901AF
:102A3000F0918A01309739F022E0DC012C93048078
:102A4000F581E02D09940895209187013091880146
:102A50008217930771F09093880180938701E0912A
:102A60008901F0918A01309721F00680F781E02DED
:102A7000099408952091850130918601821793076A
:102A800071F09093860180938501E0918901F09126
:102A90008A01309721F00084F185E02D0994089592
:102AA00085B7806885BF85B7806885BF089508951C
:102AB00008950C94581508950C945B150E945015B8
:102AC0000E9457150C94591581E008950E94F72231
:102AD0000E94130D0E94CC230E9416270E942B13E4
:102AE0000C945C154F925F927F928F929F92AF925F
:102AF000BF92CF92DF92EF92FF920F931F93CF93EB
:102B0000DF93CDB7DEB72A970FB6F894DEBF0FBEBE
:102B1000CDBF0E945E0D0E946415811111C08FEF20
:102B200089838A831B820E9400238160782F9D8382
:102B30008C8349815A816B818D810E94301657C0E8
:102B40009CE8C92E91E0D92E00E010E0AA24A394BD
:102B5000B12C702E802F0E94090D4C01F60141907E
:102B600051906F01482659264114510431F40F5FEA
:102B70001F4F0530110569F7D2CF80912E0281FDDC
:102B80000E94120D20E030E07501022E02C0EE0C12
:102B9000FF1C0A94E2F7C70184219521892B09F1D2
:102BA0002E837F828E209F2091E0892809F490E077
:102BB00098870E9400238160782F9A8789874E81A9
:102BC0005F8168858A850E943016000F111FF80109
:102BD000E457FE4F80819181E826F926F182E08258
:102BE00006C02F5F3F4F2F30310571F6C0CF0E94D6
:102BF0006F2610918B010E94F0141817D9F00E94D3
:102C0000F01480938B012A960FB6F894DEBF0FBEA6
:102C1000CDBFDF91CF911F910F91FF90EF90DF908B
:102C2000CF90BF90AF909F908F907F905F904F908C
:102C30000C943E082A960FB6F894DEBF0FBECDBFA7
:102C4000DF91CF911F910F91FF90EF90DF90CF9088
:102C5000BF90AF909F908F907F905F904F9008951E
:102C6000CF93DF93CDB7DEB72B970FB6F894DEBFC7
:102C70000FBECDBF4F83588769877A878B87DE0168
:102C8000119686E0FD0111928A95E9F785E0FE0133
:102C9000379601900D928A95E1F749815A816B81AF
:102CA0007C818D819E810E94831D2B960FB6F894A6
:102CB000DEBF0FBECDBFDF91CF910895FC018081B3
:102CC00091810E944F200895882309F41AC1823807
:102CD000C1F40E94F01481FD14C169E380911001D8
:102CE000909111010E9432220E94DA202FEF81EE92
:102CF00094E0215080409040E1F700C0000069E37B
:102D000019C08338F9F40E94F01480FDFAC063E51D
:102D100080911001909111010E9432220E94DA20CC
:102D20002FEF81EE94E0215080409040E1F700C009
:102D3000000063E580911001909111010E943D22F5
:102D40000C94DA208438C1F40E94F01482FDD9C0BA
:102D500067E480911001909111010E9432220E943B
:102D6000DA202FEF81EE94E0215080409040E1F78F
:102D700000C0000067E4DECF9CEF980F913A40F46A
:102D8000682F80911001909111010E943222D8CFBA
:102D900090E2980F983050F4877091E001C0990F3D
:102DA0008A95EAF7892F0E949120CACF9BE5980F58
:102DB000933070F4853A29F0863A31F083E890E058
:102DC00005C081E890E002C082E890E00C942415F0
:102DD00098E5980F973108F08EC0883A09F445C0FD
:102DE000893A09F445C08A3A09F445C08B3A09F496
:102DF00045C08C3A09F445C08B3B09F445C08C3B77
:102E000009F445C08D3A09F445C0803B09F445C03A
:102E10008E3A09F445C08F3A09F445C0813B09F464
:102E200045C0823B09F445C0833B09F445C0843B5F
:102E300009F445C0853B09F445C0863B09F445C00B
:102E4000873B09F445C0883B09F445C0893B09F438
:102E500045C08D3B09F445C08E3B09F445C08A3B13
:102E600009F445C080E090E044C082EE90E041C0AB
:102E700089EE90E03EC08AEE90E03BC085EB90E0AA
:102E800038C086EB90E035C083EB90E032C084EB35
:102E900090E02FC087EB90E02CC08CEC90E029C034
:102EA0008DEC90E026C083E891E023C08AE891E0B1
:102EB00020C082E991E01DC084E991E01AC081E25E
:102EC00092E017C083E292E014C084E292E011C065
:102ED00085E292E00EC086E292E00BC087E292E0CB
:102EE00008C08FE690E005C080E790E002C08AE26B
:102EF00092E00C943A15803F20F00E9477250C94C4
:102F000064260895882309F464C0823879F40E9405
:102F1000F01481FF5EC069E380911001909111016E
:102F20000E9432220E94DA2069E310C08338B1F493
:102F30000E94F01480FF4DC063E5809110019091D4
:102F400011010E9432220E94DA2063E58091100173
:102F5000909111010E943D220C94DA20843879F47A
:102F60000E94F01482FF35C067E4809110019091B7
:102F700011010E9432220E94DA2067E4E7CF9CEF21
:102F8000980F913A10F4682FE1CF90E2980F9830A3
:102F900050F4877091E001C0990F8A95EAF7892F64
:102FA0000E949720D9CF9BE5980F933020F480E0C2
:102FB00090E00C94241598E5980F973120F480E068
:102FC00090E00C943A15803F20F00E94DF250C948D
:102FD00064260895CF93C82F0E946416C93349F41C
:102FE0002FEF83EC99E0215080409040E1F700C042
:102FF00000008C2FCF910C948217882321F00E941F
:1030000091200C94DA200895882321F00E949720C3
:103010000C94DA2008954F925F926F927F92BF9244
:10302000CF92DF92EF92FF920F931F93CF93DF9394
:103030007C01062FC72FFC01158112951F70D281CC
:10304000D1110E94AE200E948720882379F0DD23D1
:1030500069F080E2800F883048F082E00E942521EC
:103060000E94872091E0B82EB92601C0B12CCC2E49
:10307000C2948FE0C822D12CF601E859FF4F0C947E
:103080005A2F8C2F807FCF70882311F0C295C07F7C
:10309000DD2399F0CC2309F4C4C180E2800F88308D
:1030A00010F0011104C08C2F0E94912003C08C2FBE
:1030B0000E94A1200E94DA20B4C1802F0E948217B2
:1030C000CC2309F4F7C180E2800F883010F00111A1
:1030D00004C08C2F0E94972003C08C2F0E94A72031
:1030E0000E94DA20E7C18C2F807FCF70803211F0F0
:1030F000C295C07F002319F00130C9F022C0DD2342
:1031000071F0112341F0113031F40E94C1208C2B59
:103110000E94C720CFC10E94C1208C2B3AC111232D
:1031200019F0113009F4C6C10E94D02018C0DD2367
:1031300021F0163008F0BEC10EC0153008F0BAC13B
:103140000EC0DD2351F0112331F0F701858180FF9E
:1031500068C18F7085838C2F1CC1111173C18C2F96
:103160001EC18C2F86958695837090E0009719F08C
:10317000019761F09FC1DD2321F0802F9C2F937078
:1031800002C080E090E00E942415A4C1DD2321F05C
:10319000802F9C2F937002C080E090E00E943A152F
:1031A00099C1DD23F9F0053F51F0063F71F0043F6E
:1031B000A9F4809161059091620581600BC08091B6
:1031C000610590916205826005C0809161059091D2
:1031D000620584609093620580936105802F0E9450
:1031E00077251EC0053F51F0063F71F0043FA9F45A
:1031F00080916105909162058E7F0BC08091610581
:10320000909162058D7F05C0809161059091620566
:103210008B7F9093620580936105802F0E94DF254C
:103220000E94642657C18C2F837009F04BC0D111C6
:103230004DC1202F229526952770220F220F602F37
:103240006F70862F90E0A0E0B0E02C013D01022ECF
:1032500004C0440C551C661C771C0A94D2F704FF6A
:1032600010C08FE090E0A0E0B0E004C0880F991F8C
:10327000AA1FBB1F2A95D2F780959095A095B0956F
:1032800003C080E090E0DC01C695C695C370D0E035
:10329000BC01CD016429752986299729C230D10541
:1032A00059F0C330D10559F0219719F00E94C81E7A
:1032B0000DC10E94B61E0AC10E94DA1E07C10E94FB
:1032C000B41E04C1DD2319F08C2F817001C08695D6
:1032D000882309F4FBC0202F229526952770220F02
:1032E000220F602F6F70862F90E0A0E0B0E02C01DD
:1032F0003D01022E04C0440C551C661C771C0A9428
:10330000D2F704FF10C08FE090E0A0E0B0E004C06E
:10331000880F991FAA1FBB1F2A95D2F780959095F9
:10332000A095B09503C080E090E0DC01C695C695FD
:10333000C370D0E0BC01CD01642975298629972985
:10334000C230D10559F0C330D10559F0219719F099
:103350000E948E1FBBC00E947C1FB8C00E94A01F8D
:10336000B5C00E94EF1EB2C0802F90E0FC01E05E6D
:10337000F109E531F10508F050C0E858FF4F0C9411
:103380005A2F0F708C2F8F71DD2331F00E94151F83
:10339000802F0E94FD178EC00E94361F802F0E9432
:1033A000041888C0DD2341F0153008F083C08C2F4D
:1033B0008F710E945B1F7EC0163008F07BC0F7CF74
:1033C000DD2339F08C2F8F710E94151F73C0DD2310
:1033D000C9F38C2F8F710E94361F6CC0DD2329F03A
:1033E0008C2F8F710E94001F65C00E94FB1E62C05F
:1033F000DD2349F0CF718C2F0E94151F63E08C2FC5
:103400000E94102157C081E00E942521123008F44B
:1034100051C082E00E9425214DC0DD2331F01123EF
:1034200089F2802F0E94641645C0112391F209335E
:1034300049F4FFEF23EC89E0F15020408040E1F7B0
:1034400000C00000802F0E94821734C04C2F4F70A4
:10345000602FC7010E9467070E94271E3BC0D11141
:1034600039C0CF70D0E0C230D10599F03CF420973C
:1034700069F02197F9F40E9450272CC0C430D1057F
:1034800071F054F02597B1F480E00AC00E94332710
:1034900021C00E948F271EC00E9496271BC08AE071
:1034A0000E94B92717C04C2F4F70602FC7010E9490
:1034B0005B0A10C098E0C916D10441F05CF0FAE054
:1034C000CF1AD10822E0C216D10420F40E94F014D1
:1034D0000E943E08BB20F1F00E94832080FD1AC0AC
:1034E000F70112820E947D200E94151FC7010E94D1
:1034F000981A0E947D20DF91CF911F910F91FF902C
:10350000EF90DF90CF90BF907F906F905F904F9043
:103510000C94361FDF91CF911F910F91FF90EF9088
:10352000DF90CF90BF907F906F905F904F90089505
:103530000F931F93CF93DF93EC01888199812B81A7
:103540003C81232BB9F09F3F11F48F3F99F0CE01BE
:103550000E945008882371F0688179818A810E94D5
:103560005A208C010E94B21F0E94B31EB801CE01E6
:103570000E940B18DF91CF911F910F9108950E9427
:10358000AE200E94BE200E94DA200E940A270E94DC
:10359000642680E090E00E94241580E090E00C9486
:1035A0003A1580911001909111010E9448220C94CB
:1035B000BF1A0E949E200C94D11AE92FE295EF7059
:1035C000F0E03297EE30F105B0F4E357FF4F0C9482
:1035D0005A2F803F91F018F4803E68F40EC0843F6B
:1035E00051F40BC0803E48F0813F29F406C093FBA4
:1035F000882780F9089580E0089581E008950E9469
:103600004F200E94DD1A0895CF93DF9300D000D0A1
:103610001F92CDB7DEB70F900F900F900F900F90C5
:10362000DF91CF910895CF93DF9300D000D000D0E9
:10363000CDB7DEB726960FB6F894DEBF0FBECDBF6E
:10364000DF91CF9108951F93CF93DF93C09197019E
:1036500016E080919801C81799F0D0E01C9FF00106
:103660001D9FF00D1124E756FE4F4081518162816C
:103670007381848195810E94131B2196C770E9CFC5
:10368000DF91CF911F9108954091C9015091CA01D6
:103690006091CB017091CC018091CD019091CE01D0
:1036A0000C94131B8091CE0182958F7009F054C049
:1036B0008091CB01882309F44FC080919701A0919C
:1036C00098016091C9017091CA014091CC0150915B
:1036D000CD01B6E08A1709F43FC090E041155105CD
:1036E000C1F17F3F11F46F3FA1F1B89FF001B99F85
:1036F000F00D1124E756FE4F218172132AC020815C
:10370000621327C02281211124C023813481241710
:10371000350710F421503109241B350B283C3105A5
:10372000C0F42091CE012F7020612093CE0126E0BD
:10373000289FF001299FF00D1124E256FE4F808151
:103740008F708061808389EC91E00E94981A0C94BC
:10375000231B01968770BECF0895CF92DF92EF9220
:10376000FF920F931F93CF93DF93CDB7DEB762978E
:103770000FB6F894DEBF0FBECDBF8C0185E0F80117
:10378000DE011D9601900D928A95E1F7D8014C91CA
:1037900011965C91119712966C9112971396CD9099
:1037A000DC9014973091C9017091CA018091CC01CD
:1037B0009091CD01009709F46BC17F3F19F43F3F11
:1037C00009F466C1E090CB01EE2009F4C0C020915D
:1037D000CE01C816D90628F0F601E81BF90BCF0177
:1037E00004C0809590958C0D9D1DFF24F394883C1A
:1037F000910578F0F12C207F09F0C6C07C2DD98A84
:10380000C88A89890E94041B89EC91E00E94981A59
:10381000B1C0822F807F09F046C0751314C03413E5
:1038200012C0611110C02F7020612093CE010E9440
:10383000441B89EC91E00E94981A8091CE01D80136
:1038400015968C932EC0CD2819F15F3F11F44F3F90
:10385000F9F0F62E61111CC080919701209198011A
:1038600036E0821709F45AC090E0389FF001399F82
:10387000F00D1124E756FE4F7181571306C0708179
:10388000471303C07281711103C001968770E9CF9D
:10389000F62E662309F427C18091CE0181608093C2
:1038A000CE01F12C20C1751308C0341306C061117C
:1038B00004C08091CE01D801C3C04D875E878D853D
:1038C0009E856A8B0E94FF1A6A898823E1F166232C
:1038D000D1F12091CE01822F82958F7090E00297D6
:1038E00074F08091C9019091CA0198878F831986DD
:1038F000DB86CA862C87CE0107960E94981A86E03E
:10390000F801A9ECB1E001900D928A95E1F70E94CF
:10391000521B0E94441BFF24F394E5C04D875E8731
:103920008D859E850E944F20292F22952F7030E093
:10393000223031050CF0CBC09F7009F0C5C0805E0D
:10394000883008F4D0C0C8010E94981AE4CFC81685
:10395000D90608F453C0F601E81BF90BCF01883CE7
:10396000910508F450C0F12C7C2DD98AC88A898928
:103970000E94041BE9ECF1E086E0DF011D928A95CC
:10398000E9F70E94441BAFC0751314C0341312C072
:10399000611110C08091CE01F8018583C8010E9499
:1039A000981A86E0E9ECF1E0DF011D928A95E9F7CB
:1039B000FE2C99C04D875E878D859E856A8B0E94FF
:1039C000FF1A6A89882309F4BECF662309F4BBCFA6
:1039D0002091CE01822F82958F7090E002970CF497
:1039E0008ECF8091C9019091CA019A8389831B82ED
:1039F000DD82CC822E83CE0101967FCF809590957B
:103A00008C0D9D1DACCFF62E662309F49CCF75134B
:103A10002EC034132CC02091CE0120FD1FC0822F58
:103A200082958F70D9F0D80115962C9315978F3009
:103A300049F08F5F982F9295907F822F8F70892BFE
:103A400015968C93C8010E94981A86E0F801A9EC9B
:103A5000B1E001900D928A95E1F793CF86E0F801ED
:103A6000A9ECB1E001900D928A95E1F73CC04D8739
:103A70005E878D859E850E94FF1A811140CF8091BF
:103A8000CE0181608093CE01C8010E94981A2BC09C
:103A9000662309F458CF4D875E878D859E850E94E9
:103AA000FF1AF82E882309F44ECF86E0F801A9EC1E
:103AB000B1E001900D928A95E1F789EC91E00E94C6
:103AC0005E160E94521B5DCF811139CF0CC024308D
:103AD00031050CF038CF9F7009F431CFF801958192
:103AE000907F09F02CCF8F2D62960FB6F894DEBF31
:103AF0000FBECDBFDF91CF911F910F91FF90EF903F
:103B0000DF90CF9008951F93CF93DF93CDB7DEB7AB
:103B10002C970FB6F894DEBF0FBECDBF4F835887EA
:103B200069877A878B879C87CE0107960E94AD1B99
:103B3000882369F08F8198852A853B85232BF1F1B5
:103B40009F3F09F063C08F3F09F060C037C086E037
:103B5000FE013796DE01119601900D928A95E1F7EC
:103B60006F817885EA85FB85309741F17F3F11F4BD
:103B70006F3F21F12091980130E0C90101968770D3
:103B800099274091970150E08417950709F447C0A1
:103B900069837A83FD83EC8396E0929FD001939FA3
:103BA000B00D1124A756BE4FFE01319601900D9223
:103BB0009A95E1F7809398010E94231B16E080916B
:103BC0009701909198018917C1F1189FC0011124A4
:103BD00087569E4F0E94AD1B882379F1E091970193
:103BE0001E9FF0011124E756FE4F408151816281F2
:103BF0007381848195810E94131B8091970190E0CD
:103C000001968770992780939701D9CF4F81588566
:103C100069857A858B859C850E94131BCFCF0E9476
:103C2000D91A1092980110929701E9ECF1E086E020
:103C3000DF011D928A95E9F7C1CF2C960FB6F89453
:103C4000DEBF0FBECDBFDF91CF911F910895EF92E0
:103C5000FF920F931F93CF93DF938C01892B09F46D
:103C60006CC0F12CEE24E394E8012196F8018491D4
:103C7000843740F4843008F051C0813081F08230C4
:103C800019F15BC0853709F444C0A8F19CE7980F8F
:103C9000903708F052C08F770E94821741C00E5FA4
:103CA0001F4FFE01C49180E28C0F883048F4C7702A
:103CB0008E2D01C0880FCA95EAF70E94B12014C06A
:103CC0008C2F0E9464162DC00E5F1F4FFE01C49101
:103CD00080E28C0F883058F4C7708E2D01C0880F99
:103CE000CA95EAF70E94B7200E94DA201AC08C2FEA
:103CF0000E94821716C00E5F1F4FFE01C491CC2395
:103D000081F08FE99FE00197F1F700C00000C150FA
:103D1000F6CF0E5F1F4FFE01F49003C00E946416A1
:103D20008E018F2D882309F49FCFEFE9FFE03197B3
:103D3000F1F700C000008150F5CFDF91CF911F91C6
:103D40000F91FF90EF90089508950C94A41E0E9487
:103D5000A51E60930502709306028093070290935C
:103D600008020C94BF1A08950C94A71E0F931F937A
:103D7000009105021091060220910702309108027D
:103D8000602B712B822B932B1F910F910C94A71EEC
:103D90000F931F93009105021091060220910702D4
:103DA0003091080260237123822393231F910F9186
:103DB0000C94A71E0F931F93009105021091060209
:103DC00020910702309108026027712782279327EC
:103DD0001F910F910C94A71E08950C94EC1E0E9445
:103DE000ED1E609301027093020280930302909390
:103DF00004020C94BF1A60E070E0CB010C94EF1E3B
:103E00000F931F9341E050E060E070E08A019B0156
:103E100004C0000F111F221F331F8A95D2F7C9015A
:103E2000B8011F910F910C94EF1E0F931F9341E067
:103E300050E060E070E004C0440F551F661F771F1C
:103E40008A95D2F78091010290910202A09103021B
:103E5000B09104028A019B01082B192B2A2B3B2BC2
:103E6000C901B8011F910F910C94EF1E0F931F937E
:103E700041E050E060E070E004C0440F551F661F51
:103E8000771F8A95D2F740955095609570958091EF
:103E9000010290910202A0910302B09104028A01F2
:103EA0009B01082319232A233B23C901B8011F9131
:103EB0000F910C94EF1E0F931F9341E050E060E0D0
:103EC00070E004C0440F551F661F771F8A95D2F714
:103ED0008091010290910202A0910302B09104022C
:103EE0008A019B01082719272A273B27C901B80106
:103EF0001F910F910C94EF1E0F931F9300910102DD
:103F0000109102022091030230910402602B712B68
:103F1000822B932B1F910F910C94EF1E0F931F93E5
:103F200000910102109102022091030230910402DB
:103F300060237123822393231F910F910C94EF1E12
:103F40000F931F930091010210910202209103022E
:103F50003091040260277127822793271F910F91C8
:103F60000C94EF1E08952FE0929F800D1124A82F2E
:103F7000A695A695A695877051E001C0550F8A9524
:103F8000EAF785E0A89FD001112420E030E070E03E
:103F9000F901EA0FFB1FE153FE4F4081CB01022ED6
:103FA00002C0969587950A94E2F7817099278195CA
:103FB00084278523842780832F5F3F4F2530310559
:103FC00039F708952FE0929F800D1124682F669590
:103FD00066956695982F977085E0689FB0011124CB
:103FE00040E050E080E0FA01E60FF71FE153FE4F9A
:103FF000208130E0092E02C0369527950A94E2F719
:1040000021703327042E01C0220F0A94EAF7822B75
:104010004F5F5F4F4530510531F70895BF92CF9202
:10402000DF92EF92FF920F931F93CF93DF938C0158
:10403000C0900502D0900602E0900702F0900802BE
:104040008091010290910202A0910302B0910402BA
:10405000C82AD92AEA2AFB2ACFE1D0E0D701C60133
:104060000C2E04C0B695A795979587950A94D2F71C
:1040700080FF07C0BC2EB8018C2F0E94760A0197E2
:1040800019F4219758F7B12C8B2DDF91CF911F9107
:104090000F91FF90EF90DF90CF90BF900895CF9356
:1040A000DF93EC010E940E20BE010E94760ADF9190
:1040B000CF9108951F93CF93DF93EB0190919601D9
:1040C000992321F0CB010E944F2013C0882349F08F
:1040D000CB010E940E20182F682FCE010E94B31F23
:1040E00004C0CB010E94E21F182FBE01812F0E9445
:1040F000760ADF91CF911F910895809109028595ED
:10410000859585950895809109028770089590910D
:104110000902977081E009F480E0089580912D02F2
:10412000089590912D02892B80932D0208958095FA
:1041300090912D02892380932D02089510922D02D3
:10414000089590912C02892B80932C0208958095DC
:1041500090912C02892380932C02089510922C02B6
:10416000089590912B02892B80932B0208958095BE
:1041700090912B02892380932B02089510922B0299
:10418000089580910A02089508950C94C420909196
:104190000A02981721F080930A020C94C520089512
:1041A00080910A02882329F010920A0280E00C9480
:1041B000C5200895E0911001F091110180912D0228
:1041C0008083E0911001F0911101908180912C0287
:1041D000892B8083E0911001F091110190818091F1
:1041E0002B02892B808380910A02882381F0E09141
:1041F0001001F09111019081892B80838091100131
:10420000909111010E94CD2181110E94D0208091B6
:104210001001909111010C94FC1408950C940D213F
:1042200098E0899F90011124262B209309020E9477
:10423000151F809109028595859585950C940E2111
:104240001092090280E00C940E21209109028095C1
:10425000822380930902982F977079F430E0482FD9
:10426000082E000C550B2417350739F085958595D8
:1042700085950E94361F0C942021089580E090E0DF
:104280000E94952F21E08D3E9E4F09F020E0822F65
:10429000089582E090E00C94872F682F82E090E0F0
:1042A0000C949B2F83E090E00C94872F682F83E081
:1042B00090E00C949B2F84E090E00C94872F682F63
:1042C00084E090E00C949B2F86E090E00C94872F84
:1042D000682F86E090E00C949B2FAB01BC018FE02F
:1042E00090E00C94AD2FAB01BC0183E190E00C9405
:1042F000AD2F60E070E0CB010C94732160E070E0C2
:10430000CB010E946D210C9479216DEE7EEF80E04F
:1043100090E00E94B92F60E082E090E00E949B2F25
:1043200060E083E090E00E949B2F109205021092C3
:104330000602109207021092080260E084E090E00A
:104340000E949B2F60E085E090E00E949B2F60E040
:1043500086E090E00E949B2F6FEF87E090E00E9444
:104360009B2F40E050E0BA0188E090E00E94AD2F22
:1043700060E08DE090E00E949B2F40E050E0BA01A9
:1043800088E190E00E94AD2F60E087E190E00E941C
:104390009B2F0C947E210C948521FC0132968091F8
:1043A0002201882331F08091670587FF02C09EE1DA
:1043B00001C096E080E0915028F021912223D9F3AA
:1043C0008F5FF9CF08959C01FC0132969FEF80E04A
:1043D0004191461789F09F3F19F4411101C0982F70
:1043E0008F5F8630A9F79F3F39F0F901E90FF11D82
:1043F00097FDFA95628308950895FC013296089618
:104400002081261301C010823196E817F907C1F701
:104410000895262F2695269526952E3168F4FC01C1
:10442000E20FF11D677021E030E001C0220F6A95B4
:10443000EAF78281282B22830895262F2695269538
:1044400026952E3170F4FC01E20FF11D677021E01A
:1044500030E001C0220F6A95EAF720958281282377
:104460002283089520912201222329F020916705BB
:1044700027FD0C9409220C94E32120912201222390
:1044800029F02091670527FD0C941D220C94FD2135
:1044900020912201FC013296222331F080916705A0
:1044A00087FF02C08EE101C086E0DF011D928A9580
:1044B000E9F7089508950C945A220E945B22809196
:1044C0006E05843009F43CC010922F0220E488E18C
:1044D00090E00FB6F894A895809360000FBE2093EB
:1044E000600080E00E94C40780E00E943E080E94B5
:1044F0006B138091300281110AC081E080933002F9
:1045000080915F028170809331020E9499120E9413
:104510005B2283B7817F846083BF83B7816083BF61
:104520007894889583B78E7F83BF0FB6F894A8954B
:1045300080916000886180936000109260000FBEDF
:10454000089508950895CF930E94A1220E945E0DC0
:104550000E94A222C0E08C2F0E94090D892B29F411
:10456000CF5FC530C1F780E001C081E0CF910895F1
:1045700008950C94B8220E94D91A0E9416270E940E
:10458000F0140E943E081092300280913102811195
:104590000E9463130E94AB120C94B9221F920F92D7
:1045A0000FB60F9211248F939F93AF93BF93809177
:1045B0002F02811113C08091630590916405A09131
:1045C0006505B09166054196A11DB11D80936305F7
:1045D00090936405A0936505B0936605BF91AF9174
:1045E0009F918F910F900FBE0F901F90189582E0B2
:1045F00084BD93E095BD9AEF97BD80936E000895BA
:104600002FB7F8948091630590916405A09165059A
:10461000B09166052FBF0895CF92DF92EF92FF927F
:104620000F931F932FB7F894409163055091640541
:1046300060916505709166052FBF6A017B01EE24CC
:10464000FF248C0120E030E0C016D106E206F3061C
:1046500010F4415051099A01281B390BC9011F91CF
:104660000F91FF90EF90DF90CF90089578941F9274
:104670000F920FB60F9211248F939F93AF93BF9316
:104680008091630590916405A0916505B0916605E0
:104690000196A11DB11D8093630590936405A093BD
:1046A0006505B0936605BF91AF919F918F910F9073
:1046B0000FBE0F901F90189581E08093E00080E27C
:1046C0008093D8001092C9008FE19EE40197F1F722
:1046D00000C0000087E090EBDC01809377059093A9
:1046E0007805A0937905B0937A059CE088E10FB630
:1046F000F894A895809360000FBE90936000FFCF60
:10470000AF92BF92CF92DF92EF92FF920F931F93DF
:10471000CF93C0E0CC24C394D12CE82EF12C8C2F65
:104720000E94090D5C0100E010E09601002E02C01D
:10473000220F331F0A94E2F72A213B21232B31F465
:104740000F5F1F4F0F30110581F70AC0602F7C2FBC
:1047500080E00E945C0AE816F90691F781E004C047
:10476000CF5FC530E1F680E0CF911F910F91FF90B0
:10477000EF90DF90CF90BF90AF900895CF93C82F68
:104780008CE20E948023882321F08C2FCF910C94FF
:10479000802380E0CF910895CF930E943E21811124
:1047A00002C00E94CB21C5E6C15049F00E945E0DB7
:1047B0008FE39CE90197F1F700C00000F5CF89E293
:1047C0000E94BE2381110FC18AE20E94BE23811183
:1047D0000E94CB2185E00E94BE2381110E945C23B0
:1047E0000E94492180932E0287E00E94BE238823E5
:1047F000A9F18BE10E94BE23882351F080912E0203
:1048000081FB222720F991E0922790FB81F90EC0CD
:104810008EE00E94BE23882361F080912E0282FBED
:10482000222720F991E0922790FB82F980932E02B3
:1048300015C080E10E94BE2390912E02882341F092
:1048400093FB222720F981E0822780FB93F904C0A3
:10485000892F809580FB90F990932E0280912E02F3
:104860000E944D210E945B2190E090936805809307
:10487000670580EE0E94BE23882341F08091670582
:10488000982F909590FB80F98093670589E30E94AB
:10489000BE23882359F08091670581FB222720F9E8
:1048A00091E0922790FB81F98093670582EE0E9448
:1048B000BE23882359F08091670582FB222720F9C7
:1048C00091E0922790FB82F98093670586EE0E9423
:1048D000BE23882359F08091670583FB222720F9A6
:1048E00091E0922790FB83F98093670583EE0E9405
:1048F000BE23882359F08091670584FB222720F985
:1049000091E0922790FB84F98093670585E30E94EC
:10491000BE23882359F08091670585FB222720F963
:1049200091E0922790FB85F98093670581E30E94CF
:10493000BE23882359F08091670586FB222720F942
:1049400091E0922790FB86F98093670581E10E94B0
:10495000BE23882359F08091670587FB222720F921
:1049600091E0922790FB87F9809367058091670516
:104970000E945F2187E20E94BE23C82F8EE10E9421
:10498000BE238111C2608FE10E94BE238111C460E9
:1049900080E20E94BE238111C86081E20E94BE2392
:1049A0008111C06182E20E94BE238111C06283E254
:1049B0000E94BE238111C06484E20E94BE2388232A
:1049C00011F0C06802C0CC2329F08C2F0E94562120
:1049D0006C2F03C00E945221682F70E080E090E0AD
:1049E000CF910C94B41ECF9108958091350280FF31
:1049F0000BC06091150185E0689FB0011124759589
:104A00006795759567952BC081FF09C06091150169
:104A100085E0689FB00111247595679520C082FFDD
:104A200007C06091150185E0689FB001112417C08F
:104A3000909134029923D1F060911401961788F770
:104A40002091150185E0289F90011124929FA001DB
:104A5000939F500D112470E0CA010E94242F6038EA
:104A6000710540F46115710539F002C065E070E030
:104A7000862F08958FE7089581E00895809135028B
:104A800080FF08C06091130170E07595679575957A
:104A9000679521C081FF06C06091130170E0759594
:104AA000679519C082FF04C06091130170E010C0C7
:104AB000909134029923C1F0609112019617A0F7EA
:104AC00080911301899FC001112470E00E94242F5E
:104AD0006038710528F46115710521F0862F08955D
:104AE0008FE7089581E0089561E070E0F4CF803FA2
:104AF00021F40E94F524819504C0813F29F40E948D
:104B0000F524809339020895823F21F40E94F52410
:104B1000819504C0833F29F40E94F52480933802D4
:104B20000895893F19F40E943E2505C08A3F31F45B
:104B30000E943E25819580933A0208958B3F21F48F
:104B40000E943E25819504C08C3F29F40E943E2599
:104B500080933B020895843F21F480913702816065
:104B600017C0853F21F480913702826011C0863FD3
:104B700021F48091370284600BC0873F21F480913B
:104B80003702886005C0883F31F480913702806128
:104B90008093370208958D3F21F480913502816022
:104BA0000BC08E3F21F480913502826005C08F3F9B
:104BB00029F4809135028460809335020895803F06
:104BC00039F48091390287FF6CC01092390269C0B4
:104BD000813F29F4809139021816BCF362C090918C
:104BE0003802823F29F497FF5CC01092380259C006
:104BF000833F19F41916CCF354C0893F41F48091D6
:104C00003A0218160CF04DC010923A024AC08A3F80
:104C100029F480913A0287FF44C0F6CF8B3F39F4E4
:104C200080913B0287FF3DC010923B023AC08C3F0F
:104C300029F480913B021816BCF333C0843F21F461
:104C4000809137028E7F17C0853F21F48091370213
:104C50008D7F11C0863F21F4809137028B7F0BC07E
:104C6000873F21F480913702877F05C0883F31F468
:104C7000809137028F7E8093370213C08D3F21F4DD
:104C8000809135028E7F0BC08E3F21F480913502DA
:104C90008D7F05C08F3F29F4809135028B7F8093F3
:104CA00035028091380281110EC080913902811144
:104CB0000AC080913A02811106C080913B028111A5
:104CC00002C010923402089586E392E00E94161505
:104CD0000E940023909333028093320208951F9321
:104CE000CF93DF9380913202909133020E940C2384
:104CF000AC0190913402992321F02091160130E00B
:104D000006C0209117018AE0289F900111244217C4
:104D1000530708F47BC080913802C0913902D091CA
:104D20003A0210913B02811107C0C1116BC0D11131
:104D300069C0111167C06AC09F3F19F09F5F9093CF
:104D40003402181624F40E94F524809338028091CE
:104D5000380287FF05C00E94F524819580933802B0
:104D60001C1624F40E94F5248093390280913902A4
:104D700087FF05C00E94F524819580933902309108
:104D800038023323E1F0209139022223C1F045EBB0
:104D90003403C0011124892F990F990B009709F44E
:104DA00081E08093380235EB2303C0011124892F61
:104DB000990F990B009709F481E0809339021D1631
:104DC00024F40E943E2580933A0280913A0287FFA4
:104DD00005C00E943E25819580933A02111624F465
:104DE0000E943E2580933B0280913B0287FF05C0D5
:104DF0000E943E25819580933B02DF91CF911F91C8
:104E00000C9464269F3F09F099CFA1CFDF91CF91F9
:104E10001F910895E6E3F2E086E0DF011D928A9596
:104E2000E9F7109234021092350208950E943E2153
:104E3000811102C00E94CB210E94642180936905E8
:104E4000282F269530E02B30310524F081708461C5
:104E5000809369058091690580FF02C0869501C035
:104E600080E00C94C40720916905822F8695482F15
:104E700050E04A30510544F48F5F982F990F822FEC
:104E80008170892B80936905809169058160809389
:104E900069050E9468218091690586950C94C40774
:104EA00080916905982F969591F09158990F81708E
:104EB000892B809369058E7F91E009F490E08091C1
:104EC000690590FB80F9809369050E9468218091B3
:104ED000690586950C94C4078091690580FD11C011
:104EE000816080936905813019F483E080936905BE
:104EF000809169050E9468218091690586950C94CE
:104F0000C40708958091690580FF08C08E7F809353
:104F100069050E94682180E00C94C407089580917F
:104F2000690580FD0C9482270C946C27909169058B
:104F3000892F86958F5F8F7791708B3028F4880F3B
:104F4000892B8093690502C090936905809169055A
:104F50008E7F91E009F490E08091690590FB80F9E3
:104F6000809369050E9468218091690586950C945B
:104F7000C4078B3008F08AE0880F90916905917022
:104F8000892B809369058E7F91E009F490E08091F0
:104F9000690590FB80F9809369050E9468218091E2
:104FA000690586950C94C40780915C0208950F935F
:104FB0001F93CF93DF9300D01F92CDB7DEB78C0144
:104FC0000E94472A823011F0843021F584E08983E1
:104FD0001B830A8382E08093E9008FEF9091E800C1
:104FE000815095FD06C095ED9A95F1F7000081116D
:104FF000F5CF8091E80085FF0DC040E050E063E010
:1050000070E0CE0101960E94642A8091E8008E77BC
:105010008093E8000F900F900F90DF91CF911F9138
:105020000F910895CF93DF9300D01F92CDB7DEB7D5
:1050300020916E05243031F523E0298380589109B1
:105040009B838A8382E08093E9008FEF9091E80050
:10505000815095FD06C095ED9A95F1F700008111FC
:10506000F5CF8091E80085FF0DC040E050E063E09F
:1050700070E0CE0101960E94642A8091E8008E774C
:105080008093E8000F900F900F90DF91CF910895DB
:10509000CF93DF93EC010E94472A823011F08430D5
:1050A000F9F482E08093E9009FEF8091E80091504D
:1050B00085FD06C085ED8A95F1F700009111F5CFC9
:1050C0008091E80085FF0CC040E050E066E070E0B1
:1050D000CE010E94642A8091E8008E778093E800D8
:1050E000DF91CF910895CF93DF93EC010E94472A7F
:1050F000823011F08430D9F580912201882339F073
:105100008091670587FF03C060E282E002C068E02B
:1051100081E08093E9008FEF9091E800815095FD48
:1051200006C095ED9A95F1F700008111F5CF8091B9
:10513000E80085FF1CC080912201811105C040E07C
:1051400050E068E070E003C070E040E050E0CE0165
:105150000E94642A8091E8008E778093E80080E2C4
:10516000FE01ACE3B2E001900D928A95E1F7DF9188
:10517000CF91089580916D05811109C00E94F92B8E
:105180000E94562C8091E20084608093E200089592
:1051900010926D050895089508950C94BB2242E085
:1051A00061EC81E00E94732B42E261EC82E00C949E
:1051B000732B80917005833009F460C030F4813026
:1051C00071F0823009F499C008958A3009F485C0DD
:1051D0008B3009F46BC0893009F0A7C020C08091E2
:1051E0006F05813A09F0A1C08091E800877F809324
:1051F000E8008091730590917405892B21F460E299
:105200008CE392E003C060E080E090E070E00E94F8
:10521000AF2A8091E8008B778093E8000895809111
:105220006F05813209F081C08091730590917405FA
:10523000029708F07AC08091E800877F8093E800A9
:105240008091E80082FD05C080916E058111F8CF44
:105250006CC02091F3008091F20090E0922B0297B5
:1052600029F48091F1008B7F813021F48091F1004D
:1052700080935C028091E8008B7753C080916F052A
:10528000813A09F052C08091730590917405892B81
:1052900009F04BC08091E800877F8093E8008091FF
:1052A000E80080FFFCCF8091220136C080916F051D
:1052B0008132D9F58091730590917405892BA9F5F8
:1052C0008091E800877F8093E8000E94A82B80915E
:1052D0007105809322010C94D91A80916F05813257
:1052E00021F58091E800877F8093E8000E94A82B39
:1052F0008091720580935D02089580916F05813AD7
:10530000A1F48091E800877F8093E8008091E80015
:1053100080FFFCCF80915D028093F1008091E800D6
:105320008E778093E8000C94A82B089584B7877F2C
:1053300084BF0FB6F894A89580916000886180932F
:105340006000109260000FBE80E8809361001092B0
:1053500061000E945E150E94F92B0E94562C8091DC
:10536000E20084608093E20078940E94E52E0E941F
:10537000661588E191E00E94EB1480916E058530FE
:1053800069F40E945D2280916C058823B1F30E942C
:10539000A322882391F30E944E2AEFCF0E94721518
:1053A0000E946E13EACF0C94D529292F332723307E
:1053B0003105C9F064F42130310581F02230310526
:1053C00009F04CC08BE390E027EE3CE04BC021326B
:1053D000310521F12232310589F140C082E190E0AE
:1053E00022E23DE03FC099278130910571F02CF415
:1053F000892BA1F5E3EEFCE00DC08230910541F070
:10540000039761F5E1ECFCE005C0E3EDFCE002C0D0
:10541000E7ECFCE0849190E09F0124C061157105E8
:1054200041F061307105D1F489E090E022E13DE086
:1054300019C089E090E029EF3CE014C061157105C6
:1054400041F06130710551F480EC90E024E33DE0DF
:1054500009C080E490E024EF3DE004C080E090E0EB
:1054600020E030E0FA013183208308950895CF933E
:10547000C82F0E94362AC0935E02CF910895809172
:105480006E05843011F081E0089582E008958091E6
:105490005E02811102C00C943F2A089580E189BD0B
:1054A00082E189BD09B400FEFDCF8091D8008F7DD7
:1054B0008093D8008091E00082608093E00080912A
:1054C000E00081FDFCCF0895CF92DF92EF92FF9232
:1054D0000F931F93CF93DF93EC018B016A010E941E
:1054E000C72B811133C0C114D10439F0F60180817A
:1054F0009181081B190BC80FD91FE12CF12C011544
:10550000110519F18091E80085FD16C08091E80031
:105510008E778093E800C114D10449F0F6018081B0
:105520009181E80EF91EF182E08285E00FC00E94B1
:10553000C72B882321F30AC089918093F100015081
:105540001109FFEFEF1AFF0ADACF80E0DF91CF9168
:105550001F910F91FF90EF90DF90CF9008952091D1
:105560007505309176052617370748F061157105E6
:1055700039F42091E8002E772093E80001C0B901AA
:1055800040E061157105A9F120916E05222309F40F
:1055900043C0253009F442C02091E80023FD40C0FB
:1055A0002091E80022FD32C02091E80020FFE9CFE1
:1055B0004091F3002091F20030E0342BFC01CF0148
:1055C0006115710559F02830310540F481918093BF
:1055D000F100615071092F5F3F4FF1CF41E028305A
:1055E000310509F040E02091E8002E772093E80093
:1055F000C8CF4111C9CF0AC080916E05882361F0E0
:10560000853061F08091E80083FD0AC08091E80058
:1056100082FFF2CF80E0089582E0089583E008954C
:1056200081E008952091750530917605261737079A
:1056300048F06115710539F42091E8002E77209328
:10564000E80001C0B901FC0120E06115710591F18C
:1056500080916E05882309F440C0853009F43FC06D
:105660008091E80083FD3DC08091E80082FD2FC05D
:105670008091E80080FFE9CF2091F3008091F20053
:1056800090E0922B6115710559F08830910540F436
:1056900024912093F1003196615071090196F2CF67
:1056A00021E0089709F020E08091E8008E77809350
:1056B000E800CBCF2111CCCF0AC080916E058823A2
:1056C00061F0853061F08091E80083FD0AC080912F
:1056D000E80082FFF2CF80E0089582E0089583E041
:1056E000089581E00895982F973058F59093E90038
:1056F000981739F07091EC002091ED005091F00076
:1057000003C0242F762F50E021FF19C03091EB0009
:105710003E7F3093EB003091ED003D7F3093ED0004
:105720003091EB0031603093EB007093EC002093EC
:10573000ED005093F0002091EE0027FF07C09F5F1F
:10574000D3CF8F708093E90081E0089580E00895C1
:1057500080916F0587FF11C08091E80082FD05C030
:1057600080916E058111F8CF11C08091E8008B7790
:105770000BC080916E05882349F08091E80080FF7E
:10578000F8CF8091E8008E778093E800089520910B
:10579000E4003091E50095E64091EC00842F8170A3
:1057A00040FF22C08091E80080FD1CC080916E0502
:1057B000882391F0853091F08091EB0085FD10C039
:1057C0004091E4005091E5004217530729F39A01F4
:1057D000915011F784E0089582E0089583E00895E0
:1057E00081E0089580E008954091E80042FFDECF17
:1057F00008950E94672C0E946F2CE0EEF0E08081FB
:1058000081608083E8EDF0E080818F77808319BC30
:10581000A7EDB0E08C918E7F8C9380818F7E80830A
:1058200010926D0508950F931F93CF93DF930E94FD
:10583000672C0E946F2CC8EDD0E088818F77888319
:1058400088818068888388818F7D888319BC1092C5
:105850006E0510926A0510926C0510926B0500EEB1
:1058600010E0F80180818B7F80838881816088834C
:1058700042E060E080E00E94732BE1EEF0E0808186
:105880008E7F8083E2EEF0E0808181608083808182
:1058900088608083F80180818E7F80838881806129
:1058A0008883DF91CF911F910F910895E8EDF0E08B
:1058B00080818F7E8083E7EDF0E08081816080834E
:1058C00084E082BF81E080936D050C94132CE8ED99
:1058D000F0E080818E7F80831092E2000895109224
:1058E000DA001092E10008951F920F920FB60F9206
:1058F00011242F933F934F935F936F937F938F93D5
:105900009F93AF93BF93EF93FF938091E10082FF4A
:105910000BC08091E20082FF07C08091E1008B7F85
:105920008093E1000E94E42E8091DA0080FF1FC086
:105930008091D80080FF1BC08091DA008E7F809319
:10594000DA008091D90080FF0DC080E189BD82E13D
:1059500089BD09B400FEFDCF81E080936E050E94F1
:10596000BA2805C019BC10926E050E94C828809103
:10597000E10080FF19C08091E20080FF15C0809196
:10598000E2008E7F8093E2008091E200806180934C
:10599000E2008091D80080628093D80019BC85E035
:1059A00080936E050E94CC288091E10084FF30C076
:1059B0008091E20084FF2CC080E189BD82E189BD35
:1059C00009B400FEFDCF8091D8008F7D8093D80070
:1059D0008091E1008F7E8093E1008091E2008F7ED4
:1059E0008093E2008091E20081608093E2008091E8
:1059F0006A05882311F084E007C08091E30087FDE9
:105A000002C081E001C083E080936E050E94CD2832
:105A10008091E10083FF29C08091E20083FF25C0CF
:105A20008091E100877F8093E10082E080936E05A2
:105A300010926A058091E1008E7F8093E100809151
:105A4000E2008E7F8093E2008091E200806180938B
:105A5000E20042E060E080E00E94732B8091F00061
:105A600088608093F0000E94CB28FF91EF91BF9156
:105A7000AF919F918F917F916F915F914F913F91E6
:105A80002F910F900FBE0F901F9018951F920F929D
:105A90000FB60F9211242F933F934F935F936F9301
:105AA0007F938F939F93AF93BF93CF93DF93EF93A6
:105AB000FF93C091E900CF708091EC00D82FD17096
:105AC00080FDD0E81092E9008091F000877F8093FC
:105AD000F00078940E948A2D1092E9008091F000E5
